:1000000026C040C03FC03EC03DC03CC03BC03AC01F
:100010009AC1D5C137C036C035C034C033C032C034
:1000200031C030C02FC00D0A2A435354550D0A0069
:100030000D0A2A5645523A535343382E56320D0A6A
:10004000006364696E6F70737578585B00001124EB
:100050001FBECFE5D4E0DEBFCDBF11E0A0E6B0E02B
:10006000E4E7FAE102C005900D92AE39B107D9F785
:1000700011E0AEE9B1E001C01D92A63DB107E1F784
:10008000D1D2F6CCBDCF813031F0833041F088231E
:1000900021F080E0089580E403C080E001C080EC9E
:1000A000862B87B980E886B981E0089516B808954F
:1000B000DF93CF93CDB7DEB72A970FB6F894DEBFA4
:1000C0000FBECDBFFE0131968AE0DF011D928A95F9
:1000D000E9F76CE3AE01455F5F4F369A862F8A954C
:1000E000F1F73699FBCF84B125B1322F20E090E0B3
:1000F000822B932B81939193E417F50771F7CE012F
:100100000196BE01675F7F4F09D02A960FB6F8941B
:10011000DEBF0FBECDBFCF91DF9108950F931F9328
:10012000CF93DF93DC018B010097D1F1611571054D
:10013000B9F14D915C911197EA01FC010BC08081EE
:100140009181C817D90708F4EC018417950708F4C2
:10015000AC013296E017F10791F7FD0180E090E0E5
:1001600060E070E017C0208131812C173D0719F441
:10017000C0E0D0E004C0820F931F6F5F7F4F241751
:10018000350719F440E050E004C0820F931F6F5F01
:100190007F4F3296E017F10731F708DC9B0102C070
:1001A00020E030E0C901DF91CF911F910F910895B8
:1001B00011B880E280B90895982FFA0184EA86BFC9
:1001C00006B607FEFDCF82ED83B984E886BF06B68A
:1001D00007FEFDCF81B1887F883119F02FEF3FEF07
:1001E0003FC093B984E886BF06B607FEFDCF81B154
:1001F000887F883219F02DEF3FEF32C084EA86BF46
:1002000006B607FEFDCF83ED83B984E886BF06B648
:1002100007FEFDCF81B1887F803419F02CEF3FEFCE
:100220001FC084E886BF20E030E0AB014150504061
:1002300010C02417350719F486B78F7B02C086B724
:10024000806486BF06B607FEFDCF83B181932F5F22
:100250003F4F261737076CF384E986BF21E030E073
:10026000C9010895982F84EA86BF06B607FEFDCF20
:1002700082ED83B984E886BF06B607FEFDCF81B163
:10028000887F883119F02FEF3FEF26C093B984E8BB
:1002900086BF06B607FEFDCF81B1887F883219F090
:1002A0002DEF3FEF19C0FA0194E80EC0808183B9A9
:1002B00096BF06B607FEFDCF81B1887F883219F060
:1002C0002CEF3FEF09C031968E2F841B861770F3F9
:1002D00084E986BF21E030E0C90108955D9BFECF2F
:1002E0008CB980E090E008955F9BFECF5C9B03C0DB
:1002F0002EEF3FEF08C05B9B03C02FEF3FEF03C023
:100300008CB1282F30E0C9010895292F332727FD0C
:100310003A9520BD89B988E18AB986E880BD0895FB
:100320005D9BFECF8CB908955F9BFECF8CB1089585
:100330001092A4011092A301E0919E01F0919F01FF
:10034000099581E008951F920F920FB60F92112424
:100350002F938F939F93EF93FF938091A0019091A0
:10036000A101FC01E45EFE4F049768F425B381E02F
:1003700090E0008002C0880F991F0A94E2F78095F0
:10038000822385BB0CC022B381E090E0008002C0D4
:10039000880F991F0A94E2F78095822382BB89B760
:1003A0008B7F89BF88B78B7F88BFFF91EF919F912B
:1003B0008F912F910F900FBE0F901F9018951F9245
:1003C0000F920FB60F9211242F933F934F935F9389
:1003D0006F937F938F939F93AF93BF93CF93DF934D
:1003E000EF93FF9382EB82BF4091A0015091A10156
:1003F0004F5F5F4F4830510514F040E050E050939C
:10040000A1014093A001FA01B3E0EE0FFF1FBA95DE
:10041000E1F7E452FF4FC481D58181E0C23CD807A7
:100420000CF464C0FA01E45EFE4F4430510560F400
:1004300025B381E090E0008002C0880F991F0A94E4
:10044000E2F7282B25BB0BC022B381E090E00080AF
:1004500002C0880F991F0A94E2F7282B22BB88B7A5
:100460008B7F88BFFA01A3E0EE0FFF1FAA95E1F78B
:10047000E452FF4FA081B1818B2F992787FD9A9578
:1004800080958DBD8A2F80958CBD89B7846089BF8A
:100490007894FA0163E0EE0FFF1F6A95E1F7E452EA
:1004A000FF4F26813781CE018A1B9B0B97FF03C02C
:1004B000909581959F4FB90137FF04C06627772734
:1004C000621B730BFA0143E0EE0FFF1F4A95E1F741
:1004D000681779072CF0E452FF4FD183C08306C020
:1004E000E452FF4F2A0F3B1F31832083FF91EF918E
:1004F000DF91CF91BF91AF919F918F917F916F913C
:100500005F914F913F912F910F900FBE0F901F90D1
:10051000189500D080E390E0EDB7FEB79283818319
:10052000ACD40F900F9081E00895EF92FF920F935B
:100530001F93CF93DF93CCEDD0E000E010E080E696
:10054000E82E80E0F82E8DB79EB70C970FB6F89482
:100550009EBF0FBE8DBFEDB7FEB73196ADB7BEB72C
:100560001296FC92EE921197138302838C819D81E7
:100570009583848388819981978386838A819B81EF
:10058000918780878E819F819387828764D40F5F54
:100590001F4F28968DB79EB70C960FB6F8949EBF46
:1005A0000FBE8DBF0830110571F681E0DF91CF914C
:1005B0001F910F91FF90EF900895EF92FF920F938C
:1005C0001F93CF93DF93E090A501F090A60106E57D
:1005D00011E0C0E0D0E0F80180819181B701E9D35A
:1005E0000C5F1F4F009781F4CC0FDD1FCC0FDD1F78
:1005F000CA5ADE4FEA81FB81309769F0099588235A
:1006000039F088E790E006C02196C830D10519F787
:100610008EE790E055D4DF91CF911F910F91FF901D
:10062000EF9008954F925F926F927F928F929F9278
:10063000AF92BF92CF92DF92EF92FF920F931F93F0
:10064000DF93CF93CDB7DEB7C456D0400FB6F89442
:10065000DEBF0FBECDBFFE01319684E6DF011D92E5
:100660008A95E9F78FEF9FEF9093A1018093A00106
:100670008EEC90E09093D3018093D201F89484B3F0
:100680008F6084BB81B3806F81BB80E185BB80E2DA
:1006900085BB88E080B986B7846086BF84E083BF6D
:1006A00089B7816089BF82EB82BF8EB582608EBDC3
:1006B000E199FECFE199FECF80E090E09FBB8EBB39
:1006C000E09A9DB3892F81508E3F18F089E190E028
:1006D00002C0892F90E019DEE199FECFE199FECFAB
:1006E00081E090E09FBB8EBBE09A8DB38093A20126
:1006F000789400D086E290E0EDB7FEB792838183D4
:10070000BCD3EE24FF240F900F905E010894A11C2F
:10071000B11C27E8422E20E0522E92E0692E712C67
:100720006C0E7D1E85EA882E81E0982E0BE2C02E8D
:10073000FBDDD82E082F10E06091D2017091D3011B
:10074000C8015DD30D30110571F0F4E6EF16F10428
:1007500011F4EE24FF24F501EE0DFF1DD082089464
:10076000E11CF11CE5CFEA0CFB1CD7011C9200D068
:1007700000D0EDB7FEB752824182B482A3826BD320
:100780006091A5017091A6010091A701D501A30177
:1007900095010F900F900F900F900AC0F22FE32F4A
:1007A0009B0111964F5F5F4FB9018F2F9E2F9C01C8
:1007B0008C918D3321F41C92F42FE52FF2CF8C32E3
:1007C00079F41C92E02FFF27E7FDF095EE0FFF1F55
:1007D000EB55FE4F348323830F5FF42FE52FE0CFDB
:1007E0008823E1F66093A501F40171830093A701CA
:1007F0002A173B07A1F0672B29F43093A601209319
:10080000A5010DC0E02FFF27E7FDF095EE0FFF1FBC
:10081000EB55FE4F348323830F5F0093A701CDDE9A
:10082000D401EC2D1D92EA95E9F7EE24FF2480CF48
:100830008F929F92AF92BF92CF92DF92EF92FF92F0
:100840000F931F93DF93CF93CDB7DEB764970FB6A7
:10085000F894DEBF0FBECDBF98E090B984E17E0171
:100860000894E11CF11CD701E82F1D92EA95E9F7E5
:1008700090B9D7011D928A95E9F780E464E170E0B0
:10088000A7019ADC182F00D000D08AE890E0EDB7DD
:10089000FEB792838183812F992787FD909594835A
:1008A0008383D9D20F900F900F900F90113011F0D9
:1008B00080E048C000D085E990E0ADB7BEB71296A1
:1008C0009C938E931197C7D287010F900F9051EA96
:1008D000852E50E0952E4DE9A42E40E0B42E35E152
:1008E000C32ED12CCC0EDD1E802F8E19833171F0DA
:1008F00000D000D0EDB7FEB73196ADB7BEB71296B7
:10090000BC92AE921197D8018C910CC000D000D04F
:10091000EDB7FEB73196ADB7BEB712969C928E92E8
:1009200011978C898283138296D20F900F900F902B
:100930000F900F5F1F4F0C151D05B1F684EA90E074
:10094000BFD281E064960FB6F894DEBF0FBECDBF74
:10095000CF91DF911F910F91FF90EF90DF90CF909B
:10096000BF90AF909F908F9008951F93DF93CF9388
:10097000CDB7DEB7A7970FB6F894DEBF0FBECDBFD9
:10098000DE011196EBE8F1E082E101900D928150D9
:10099000E1F788E062E1AE014F5F5F4F63DC00D0BA
:1009A00000D026EA30E0ADB7BEB712963C932E9346
:1009B000119714969C938E9313974DD2DE01539604
:1009C000E6E7F1E085E101900D928150E1F70F90AB
:1009D0000F900F900F9080E465E1AE014D5E5F4F88
:1009E00041DC182F00D000D0EDB7FEB7319626EAD3
:1009F00030E0ADB7BEB712963C932E931197828329
:100A0000938329D20F900F900F900F90812FA7966C
:100A10000FB6F894DEBF0FBECDBFCF91DF911F910F
:100A200008950F93CF93DF938091A70118169CF53B
:100A30008091A8019091A90179D1082F883058F5AB
:100A400083E0602F20DB882331F1802F31DBEC0144
:100A50002DDB00D000D000D0EDB7FEB731968EEA86
:100A600090E0ADB7BEB712969C938E931197802FEE
:100A7000992787FD909593838283D583C483EBD197
:100A800081E02DB73EB72A5F3F4F0FB6F8943EBFC7
:100A90000FBE2DBF01C080E0DF91CF910F9108956F
:100AA0008091A70118160CF062C08091A801909166
:100AB000A90159D12BE46030720711F1ABE4613028
:100AC0007A0768F4B2E1603C7B07B1F025E2603858
:100AD0007207A1F06056794009F049C04AC0BAE7F0
:100AE00062317B0789F026E96030720779F060583F
:100AF000704709F03CC006C027E609C023E307C0E1
:100B000029E105C020E103C02FE001C02CE0E199FC
:100B1000FECFE199FECF80E090E09FBB8EBB2DBB66
:100B20000FB6F894E29AE19A0FBEE199FECFE199EF
:100B3000FECF9FBB8EBBE09A8DB3821711F081E090
:100B4000089500D000D0EDB7FEB731968EEB90E05F
:100B5000ADB7BEB712969C938E93119722831382E2
:100B60007AD181E00F900F900F900F90089580E060
:100B700008952FECCCCF4F925F926F927F928F921D
:100B80009F92AF92BF92CF92DF92EF92FF920F931C
:100B90001F93DF93CF93CDB7DEB7C254D0400FB6CB
:100BA000F894DEBF0FBECDBF8091A70118160CF0E0
:100BB000A4C063E0EED6992309F09FC0DE0113962E
:100BC000ECEDF0E080E401900D928150E1F71A82A3
:100BD0001982E8EAAE2EE1E0BE2E882499247AEC50
:100BE000472E70E0572E3E010894611C711C71C0A5
:100BF00000D000D000D0EDB7FEB73196D5018D9171
:100C00009C91ADB7BEB712969C938E931197538269
:100C100042827582648289D109811A81EDB7FEB75B
:100C200036960FB6F894FEBF0FBEEDBF0830110523
:100C300008F063C0D50112968D919C91139793D0C3
:100C40006B017C0163E0000F111F6A95E1F7060D4F
:100C5000171DF801D782C682D50114968D919C91FB
:100C6000159781D09B01AC01D80119967C936E93A6
:100C70001897B601C601825C91408F599740E8F5FC
:100C8000D80112968D919C911397B1E0823C9B07FD
:100C9000ACF0232B31F4681B790BF8017187608766
:100CA00010C0C816D9066CF488279927821B930BAD
:100CB000D80119969C938E93189703C0F801D3829C
:100CC000C28283E090E0880E991EA6E0B0E0AA0EF2
:100CD000BB1E8091A701992787FD909588169906DC
:100CE0000CF486CFACEDB0E0FE01339680E40190C9
:100CF0000D928150E1F781E001C080E0CE5BDF4FD3
:100D00000FB6F894DEBF0FBECDBFCF91DF911F911C
:100D10000F91FF90EF90DF90CF90BF90AF909F909A
:100D20008F907F906F905F904F900895FC0188277F
:100D30009927E89421912032E9F3293010F02E30E0
:100D4000C8F32B3239F02D3231F4689403C04FD000
:100D5000820F911D219120532A30C8F31EF49095E3
:100D600081959F4F08951F93FC0199278827BC0107
:100D7000E89411911032E9F3193010F01E30C8F3E5
:100D80001B3249F01D3241F4689405C01BD0610F3D
:100D9000711D811D911D119110531A30B8F33EF44D
:100DA00090958095709561957F4F8F4F9F4F1F91C4
:100DB0000895FB01DC018D91019080190110D9F398
:100DC000990B0895592F482F372F262F660F771F1D
:100DD000881F991F660F771F881F991F620F731F47
:100DE000841F951F660F771F881F991F08957AE04B
:100DF000979F902D879F802D910D112408950F931B
:100E00001F93CF93DF938C01EB018B8181FF1BC07C
:100E100082FF0DC02E813F818C819D81281739076B
:100E200064F4E881F9810193F983E88306C0E885D9
:100E3000F985802F0995892B31F48E819F81019648
:100E40009F838E8302C00FEF1FEFC801DF91CF9108
:100E50001F910F910895A0E0B0E0E0E3F7E0E1C555
:100E6000FE013596619171918091D2019091D301EB
:100E7000AF0172D02096E2E0F0C5A0E0B0E0E2E47D
:100E8000F7E0CFC5FE01359661917191A091D20135
:100E9000B091D30113968C911397886013968C931D
:100EA0008091D2019091D301AF0156D0E091D2014F
:100EB000F091D3012381277F23832096E2E0CDC5E3
:100EC0000F931F93CF93DF938C01E091D201F091A8
:100ED000D301838181FF21C0C0E0D0E00DC0E0914B
:100EE000D201F091D30120853185BF01F901099527
:100EF000892B11F0CFEFDFEFF80181918F0188236B
:100F000071F7E091D201F091D301208531858AE01B
:100F1000BF01F9010995892B11F0CFEFDFEFCE0169
:100F2000DF91CF911F910F910895AEE0B0E0EAE913
:100F3000F7E077C585E08C838B899C899A838983C8
:100F40009E01295E3F4FCE0101966D897E89A901E0
:100F500044D32E96E2E081C5ABE0B0E0E1EBF7E0F0
:100F600050C53C012B015A01FC0117821682838176
:100F700081FD03C06FEF7FEFB9C19AE0892E1E019A
:100F80000894211C311CF3012381F20123FD85917A
:100F900023FF81912F01882309F4A5C1853239F4FB
:100FA00023FD859123FF81912F01853221F490E06B
:100FB000B30125DFE8CF982FFF24EE249924FFE129
:100FC000FF15D0F09B3269F09C3228F4903259F032
:100FD000933291F40EC09D3249F0903369F441E0B0
:100FE00024C052E0F52A84E0F82A28C098E0F92AC3
:100FF00025C0E0E1FE2A22C0F7FC29C0892F8053DA
:101000008A3070F4F6FE05C0989C902C1124980E3E
:1010100015C0E89CE02C1124E80EF0E2FF2A0EC077
:101020009E3229F4F6FC5FC140E4F42A07C09C36E6
:1010300019F450E8F52A02C0983649F4F20123FD6C
:10104000959123FF91912F01992309F0B8CF892F12
:101050008554833018F08052833038F444E050E0F7
:10106000A40EB51E5FE359830FC0933631F093375A
:1010700079F0933509F052C01FC0F5018081898352
:1010800042E050E0A40EB51E610101E010E011C085
:10109000F501C080D180F6FC03C06FEF7FEF02C086
:1010A000692D70E042E050E0A40EB51EC601ACD33D
:1010B0008C015FE7F52213C0F501C080D180F6FCFA
:1010C00003C06FEF7FEF02C0692D70E042E050E097
:1010D000A40EB51EC6018DD38C0150E8F52AF3FE8F
:1010E00006C018C080E290E0B30189DEEA948E2D3C
:1010F00090E008171907B0F30DC0F601F7FC8591D1
:10110000F7FE81916F0190E0B30179DEE110EA947E
:10111000015010400115110581F7E2C0943611F01D
:10112000993661F5F7FE08C0F501208131814281D1
:10113000538184E090E00AC0F501808191819C0197
:10114000442737FD4095542F82E090E0A80EB91E49
:101150009FE6F92257FF09C050954095309521959B
:101160003F4F4F4F5F4FE0E8FE2ACA01B901A1018E
:101170002AE030E0B0D3D82ED2183FC0953729F4FA
:101180001F2D1F7E2AE030E01DC01F2D197F9F36C6
:1011900061F0903720F4983509F0A5C00FC0903762
:1011A00039F0983709F09FC004C028E030E00AC049
:1011B000106114FD146020E130E004C014FD1660DD
:1011C00020E132E017FF08C0F50160817181828162
:1011D000938144E050E008C0F50180819181BC0119
:1011E00080E090E042E050E0A40EB51EA10173D370
:1011F000D82ED2188FE7F82EF122F6FE0BC05EEF44
:10120000F522D91438F4F4FE07C0F2FC05C08FEEC5
:10121000F82202C01D2D01C0192DF4FE0DC0FE01E3
:10122000ED0DF11D8081803319F499EEF92208C08B
:101230001F5FF2FE05C003C08F2D867809F01F5F87
:101240000F2DF3FC13C0F0FE0EC01E1510F09D2CE8
:101250000AC09D2C9E0C911A1E2D05C080E290E0C4
:10126000B301CDDD1F5F1E15C8F304C01E1510F4B9
:10127000E11A01C0EE2404FF0EC080E390E0B30148
:10128000BEDD02FF1BC001FD03C088E790E00EC079
:1012900088E590E00BC0802F867881F001FF02C0C6
:1012A0008BE201C080E2F7FC8DE290E0B301A7DDA4
:1012B00005C080E390E0B301A2DD9A94D914C8F38D
:1012C000DA94F101ED0DF11D808190E0B30197DD1D
:1012D000DD20B1F705C080E290E0B30190DDEA9433
:1012E000EE20C9F750CEF30166817781CB012B96B2
:1012F000E2E1A3C3FC0120FD08C023FD05C022FFDD
:1013000002C073836283518340830895EF92FF92FA
:101310000F931F9344FF02C033E011C046FF02C089
:1013200034E00DC0DB01FC01AA0FBB1FEE1FFF1F45
:101330001094D1F76A0F7B1F8E1F9F1F31E0660F3D
:10134000771F881F991F3150D1F77B018C01E20E66
:10135000F11C011D111DA8019701B701CA011F91C0
:101360000F91FF90EF9008950F931F93CF93DF930A
:101370008C01C80154D2EC0197FD06C037D3892BEC
:10138000C1F7CE01B8018DD2CE01DF91CF911F916F
:101390000F910895A0E0B0E0EFECF9E03AC3EC0162
:1013A000C62E5A01122F3BD2AC018B3219F08D326E
:1013B00049F41068CA9409F466C0CE0130D2AC0179
:1013C00097FD61C06DEFD62ED1228D2D8073F1F483
:1013D0004033E1F4CA9409F442C0CE0120D2AC01FA
:1013E00097FD3DC082E0D82A483711F0483551F4C6
:1013F00080E4D82ACA9499F1CE0111D2AC01992384
:101400002CF42DC0D6FC02C080E1D82AEE24FF24A3
:101410008701242F2053283080F0D4FC09C02A30C3
:1014200060F0D6FE05C02F7D822F8151863020F0DE
:10143000CA01BE0136D210C02750C801B7014D2DD8
:1014400065DF7B018C0182E0D82ACA9459F0CE0175
:10145000E6D1AC0197FFDDCFD1FC04C014C0EE246F
:10146000FF248701D7FE08C010950095F094E09402
:10147000E11CF11C011D111DC501B801A7012D2D95
:1014800039DF81E001C080E0CDB7DEB7EAE0DDC240
:10149000A0E2B0E0EDE4FAE0B8C26C01A62E8A0149
:1014A0007901FE01319680E2DF011D928A95E9F70C
:1014B00070E030E060E040E050E04F01A1E0B0E0DB
:1014C000F6018381F70183FD259183FF21917F013F
:1014D000222309F47CC02E3519F44115510569F118
:1014E000872F90E08417950744F42D3551F12D3264
:1014F00021F4332329F431E021C0332309F4622F8E
:10150000322F832F869586958695F401E80FF11D7D
:10151000832F87703D0102C0660C771C8A95E2F725
:10152000208126292083361711F430E007C03617B2
:1015300010F43F5FE6CF3150E4CF71E04F5F5F4F73
:10154000BFCF332319F08E8180628E83772359F0C9
:10155000FE0131969E012F5D3F4F808180958193E2
:10156000E217F307D1F7BB24B3944E010894811C12
:10157000911CC60154D1AC0197FD21C0869586957A
:101580008695F401E80FF11D808190E09A012770A3
:10159000307002C0959587952A95E2F780FD04C0CA
:1015A000CA01B6017ED10BC00115110519F0D80191
:1015B0004D938D01AA94BB24AA20D9F602C0BB206A
:1015C00031F40115110529F0F801108202C0EE2452
:1015D000FF24C701A096EEE034C2A0E0B0E0E2EF45
:1015E000FAE013C25C016B013A01FC01178216821A
:1015F0008824DCC0812F90E0F9D1892B19F0C50136
:10160000B3DED4C0153249F4F601F3FC6591F3FE64
:1016100061916F01653259F415E2C50100D197FD62
:10162000D1C0181709F4C2C0B5013BD1D0C06A328D
:1016300019F0162F00E006C0F3FC1591F3FE11918E
:101640006F0101E099240EC00260692D70E080E016
:1016500090E040E25BDE962EF601F3FC1591F3FE7E
:1016600011916F01212F20532A3070F301FD03C027
:1016700099249A9403C0992009F4A9C0183621F03E
:101680001C3699F4F6010BC0F601F3FC6591F3FEEC
:101690006191683619F06F01162F07C00860046069
:1016A000F3FC1591F3FE11916F01112309F48FC022
:1016B00081E490E0612F70E091D0892B09F487C01C
:1016C000802F00FF03C0EE24FF2407C0F301E08059
:1016D000F18022E030E0620E731E1E3649F4F501FF
:1016E0004681578160E070E0C701202F03DE5EC0B5
:1016F000133689F481FD02C099249394C5018FD0DB
:1017000097FD60C0E114F10419F0F70181937F01A6
:101710009A94A1F749C01B3551F4C501692DA70161
:101720009601B6DE6C01009709F03EC038C0C501D5
:101730001BDE97FD47C01F3641F1103728F41436E1
:1017400011F1193621F524C0133719F01537F9F4C2
:101750001AC0C50164D0EC0197FD0FC047D1892B99
:1017600021F0CE01B5019DD008C0E114F10419F0BB
:10177000F701C1937F019A9461F7E114F104A1F09C
:10178000F701108211C0006203C0006101C0006453
:10179000C501692DA701202FFDDD882329F4F5015E
:1017A0008381807379F413C000FF8394F501F38083
:1017B000F601F3FC1591F3FE11916F01112309F06D
:1017C00019CF05C0882019F42FEF3FEF02C0282D54
:1017D00030E0C901CDB7DEB7EEE033C1FC010590C2
:1017E000061621F00020D9F7C00108953197CF01E6
:1017F0000895FC010590615070400110D8F7809564
:1018000090958E0F9F1F0895FC01615070400190CC
:101810000110D8F7809590958E0F9F1F0895CF9354
:10182000DF93EC014B8140FF1AC046FF0AC04F7B9B
:101830004B838E819F8101969F838E838A81282F7F
:101840002BC042FF13C0E881F9818081282F332704
:1018500027FD30952115310529F440624B832FEF88
:101860003FEF1BC03196F983E88311C0EA85FB8501
:10187000CE0109959C0197FF0AC09B812F5F3F4FC6
:1018800011F080E201C080E1892B8B83E8CF8E814B
:101890009F8101969F838E8330E0C901DF91CF91B4
:1018A00008959C01FB01838180FF11C086FD0FC05C
:1018B0009FEF2F3F390759F0228380648F7D838308
:1018C0008681978101979783868330E002C02FEF4E
:1018D0003FEFC9010895FA01AA27283051F12031BC
:1018E00081F1E8946F936E7F6E5F7F4F8F4F9F4FB4
:1018F000AF4FB1E03ED0B4E03CD0670F781F891FF6
:101900009A1FA11D680F791F8A1F911DA11D6A0FC3
:10191000711D811D911DA11D20D009F468943F9176
:101920002AE0269F11243019305D3193DEF6CF0175
:101930000895462F4770405D4193B3E00FD0C9F73B
:10194000F6CF462F4F70405D4A3318F0495D31FDA8
:101950004052419302D0A9F7EACFB4E0A6959795FB
:10196000879577956795BA95C9F7009761057105D1
:1019700008959B01AC010A2E06945795479537951B
:101980002795BA95C9F7620F731F841F951FA01D75
:10199000089587FB082E062687FD819567FD6195D2
:1019A00019D00EF4919507FC81950895AA1BBB1BD5
:1019B00051E107C0AA1FBB1FA617B70710F0A61B4F
:1019C000B70B881F991F5A95A9F780959095BC0170
:1019D000CD010895991B79E004C0991F961708F06E
:1019E000961B881F7A95C9F780950895911106C0B6
:1019F000803219F089508550D0F7089599278827AB
:101A000008952F923F924F925F926F927F928F92A2
:101A10009F92AF92BF92CF92DF92EF92FF920F937D
:101A20001F93CF93DF93CDB7DEB7CA1BDB0B0FB687
:101A3000F894DEBF0FBECDBF09942A883988488844
:101A40005F846E847D848C849B84AA84B984C884DA
:101A5000DF80EE80FD800C811B81AA81B981CE0FD1
:101A6000D11D0FB6F894DEBF0FBECDBFED010895B6
:041A7000F894FFCF18
:101A74000D0A534D56523A25642C25642C25642CAA
:101A840025642C25640D0A000D0A4F4B0D000D0A28
:101A94004552524F520D0025730053322C72657417
:101AA4003D25640D000D0A2A4545523A0025642C53
:101AB400002564000D007265743D25640D000D0A57
:101AC4002A524144563A25642C25640D0A000D0A15
:101AD4002A5342523A25640D0A005025640000003E
:101AE4000002000000006E0174010000DC05FFFF2D
:101AF400DC050000DC05FFFFDC050000DC05FFFF62
:101B0400DC050000DC05FFFFDC050000DC05FFFF51
:101B1400DC050000DC05FFFFDC050000DC05FFFF41
:101B2400DC050000DC05FFFFDC050000000102030A
:101B34000405060741542A534D56520041542A5372
:101B44004D560041542A5645520041542A52455399
:101B540045540041542A5342520041542A524144AC
:101B6400560057005200240195022C01BB05330195
:101B740089023A019801430150054A0111055201B5
:101B8400B504540118043592F41B92E51B92E51B2D
:101B940092E51B92E51B92E51B92E5000505010009
:0E1BA4000450550000000000AA0000E90000F7
:00000001FF
